:020000021000EC
:10C0000000000120FD620300256303002763030095
:10C01000296303002B6303002D630300000000006D
:10C020000000000000000000000000002F6303007B
:10C030003163030000000000336303003563030035
:10C040003763030037630300ED6A030037630300BF
:10C0500035E101003763030095E401003763030015
:10C06000376303003763030037630300376303005C
:10C07000376303003763030037630300376303004C
:10C0800037630300D16503003763030037630300A0
:10C09000376303003763030037630300376303002C
:10C0A000376303003763030037630300376303001C
:10C0B0003763030037630300000000000000000046
:10C0C00037630300376303003763030037630300FC
:10C0D000A11702003763030037630300000000006C
:10C0E0000000000000000000000000000000000050
:10C0F0000000000000000000000000000000000040
:10C10000000000000000000000000000000000002F
:10C11000000000000000000000000000000000001F
:10C40000044B05481B1A062B02D9044B03B11847ED
:10C41000704700BFAB230020A823002000000000CD
:10C4200005490648091A891001EBD171491002D05B
:10C43000034B03B118477047A8230020A82300200E
:10C440000000000010B5064C237843B9FFF7D8FF71
:10C45000044B13B10448AFF300800123237010BDD7
:10C46000A823002000000000C030070008B5084BDA
:10C470001BB108490848AFF300800848036813B9A6
:10C48000BDE80840CCE7064B002BF9D09847F7E70A
:10C4900000000000AC230020C0300700A4230020CF
:10C4A00000000000154B002B08BF134B9D46A3F561
:10C4B000803A00218B460F461348144A121A1BF08B
:10C4C00049FC0F4B002B00D098470E4B002B00D09F
:10C4D00098470020002104000D000D48002802D0DC
:10C4E0000C48AFF300801BF0BFFB200029001AF0BE
:10C4F000B7FC1BF0A5FB00BF0000080000000120F6
:10C500000000000000000000A823002034AC002040
:10C51000000000000000000008B54FF4FA701AF0A7
:10C5200049F801F0A5FE88B14FF080430122C3F81D
:10C530001C25BFF34F8F2149214BCA6802F4E062EA
:10C540001343CB60BFF34F8F00BFFDE705F05AFBED
:10C5500005F008F905F04EF900F0EAFF01F04EFA97
:10C5600001F0AAFC01F06AFE00F0D0F901F00EFA29
:10C5700004F0BCF9032000F08DF900F035FB01F068
:10C58000E7FB05F038F905F06BFA05F033F804F035
:10C5900043F904F055FD01F095FB00F017F900F0A8
:10C5A000E5FB01F0C3FE64201AF004F8032000F05C
:10C5B00071F9BDE8084004F031B900BF00ED00E0BA
:10C5C0000400FA0510B586B000F0CAFB01F050FE79
:10C5D00008B905F01BFB05F011F8044610B105F091
:10C5E00055F806E005F08AF8204604F013FA00F04A
:10C5F00067FB05F0AFF8D0B105F000F828B100F006
:10C6000045F810B1082005F055F8684605F002F924
:10C61000039A094B32B91A7832B901221A7000F024
:10C62000AEF801E000221A70049801F0C7FB06B0D2
:10C63000BDE8104002F086B8C423002007B50423EB
:10C640000DEB03021E21182001F048FD019803B0F4
:10C650005DF804FB10B50C4C06232246122118206D
:10C6600001F03CFD1022B4F9003093FBF2F323807B
:10C67000B4F9023093FBF2F36380B4F9043093FB16
:10C68000F2F3A38010BD00BFC823002010B5114CE9
:10C69000FFF7E0FFB4F90030B3F5A87F01DB00201D
:10C6A00010BDB4F90430002BF9DA04F0A7FFB4F997
:10C6B000023028B9002BF2DD074B0020186010BDB6
:10C6C000002BF9DA04490C6803F1E602A242E6DA2B
:10C6D0000B6010BDC8230020D823002008B5FFF749
:10C6E000B9FF0A4BB3F90220B2F5967F0BDCB3F920
:10C6F0000020B2F5967F06DCB3F904006328CCBFB6
:10C700000020012008BD002008BD00BFC823002074
:10C7100007B502AA012302F8011D0146182001F005
:10C72000B9FC03B05DF804FB2DE9F04206469146E2
:10C730001D460024A5421CD9069B03EB640707F0A5
:10C740000F015B20FFF7E4FFC7F307115C20FFF741
:10C75000DFFF2B1B102B09EB040228BF10235E21E7
:10C76000182016B101F0BAFC01E001F093FC10347E
:10C77000E0E7BDE8F082B6217E20FFF7C9BF10B523
:10C7800094B04722002102A81BF0E4FA00217C208B
:10C79000FFF7BEFF4FF48074012019F00BFF02AACF
:10C7A000009446235E210120FFF7BEFF34238DF85D
:10C7B000433002AA462300945E210020FFF7B4FF15
:10C7C00003217C20FFF7A4FF14B010BD07B50021A2
:10C7D000082019F0B7FFFFF7CEFF0A2019F0EAFE94
:10C7E00000217C20FFF794FF012019F0E3FE0021D7
:10C7F0005920FFF78DFF002001230E4A00905E2193
:10C80000FFF792FF01215920FFF782FF0A2019F05C
:10C81000D1FE04217D20FFF77BFF28214020FFF778
:10C8200077FFFFF7ACFF03217C2003B05DF804EB3A
:10C83000FFF76EBF5CA1030007B5012301460DF1B0
:10C840000702182001F04AFC9DF8070003B05DF8CC
:10C8500004FB000038B50546FFF7FCFEFFF7EEFECF
:10C86000084CA0602720FFF7E7FF20732220FFF786
:10C87000E3FF1730A07194E80F0085E80F00284609
:10C8800038BD00BFC8230020014B1868704700BFA7
:10C89000DC23002008B550B11B4B18600138062876
:10C8A00031D8DFE800F0061012181A20220001210A
:10C8B00000E000210E2019F067FF0121162019F079
:10C8C00063FF01211AE0012100E000210E2019F090
:10C8D0005BFF0021F2E7012100E000210E2019F0AA
:10C8E00053FF012106E0012100E000210E2019F094
:10C8F0004BFF0021162019F047FF00211720BDE84B
:10C90000084019F041BF08BDDC23002008B5012113
:10C910000E2019F017FF0121162019F013FF172020
:10C92000012119F00FFF0020BDE80840FFF7B2BF5A
:10C93000014B1868FFF7AEBFDC230020054A06490B
:10C940001368096801338B421360C2BF034B1B6835
:10C9500013607047DC230020842000208820002002
:10C96000054A064913680968013B8B421360BEBF44
:10C97000034B1B6813607047DC23002088200020D5
:10C9800084200020DFED7B7AB4EEE70AF1EE10FAA6
:10C9900082B080F2E9809FED787AB4EEC70AF1EEBA
:10C9A00010FA0DDD37EEC00A0D20FDEEC07ACDED98
:10C9B000017ABDF9043093FBF0F0C0F16300D6E0DA
:10C9C000DFED6E7AB4EEE70AF1EE10FA0DDD37EE28
:10C9D000400A0920FDEEC07ACDED017ABDF90430A0
:10C9E00093FBF0F0C0F15A00C1E09FED657AB4EE20
:10C9F000C70AF1EE10FA0DDD37EEC00A0720FDEE92
:10CA0000C07ACDED017ABDF9043093FBF0F0C0F1AE
:10CA10005000ACE0DFED5B7AB4EEE70AF1EE10FA1D
:10CA20000DDD37EE400A0620FDEEC07ACDED017A2D
:10CA3000BDF9043093FBF0F0C0F1460097E09FEDA4
:10CA4000527AB4EEC70AF1EE10FA0DDD37EEC00AE5
:10CA50000420FDEEC07ACDED017ABDF9043093FBE0
:10CA6000F0F0C0F13C0082E0DFED487AB4EEE70A76
:10CA7000F1EE10FA0DDD37EE400A0320FDEEC07A2C
:10CA8000CDED017ABDF9043093FBF0F0C0F1320036
:10CA90006DE0DFED3F6AB4EEE60AF1EE10FA0DDD6F
:10CAA00037EEC00A0220FDEEC07ACDED017ABDF965
:10CAB000043093FBF0F0C0F1280058E0DFED357A48
:10CAC000B4EEE70AF1EE10FAB0EE677A0DDD36EE5D
:10CAD000C00A0220FDEEC07ACDED017ABDF9043026
:10CAE00093FBF0F0C0F11E0041E0DFED2B7AB4EED5
:10CAF000E70AF1EE10FA0DDD37EE400A0320FDEEF5
:10CB0000C07ACDED017ABDF9043093FBF0F0C0F1AD
:10CB100014002CE09FED217AB4EEC70AF1EE10FA72
:10CB20000DDD37EEC00A0620FDEEC07ACDED017AAC
:10CB3000BDF9043093FBF0F0C0F10A0017E0DFED1F
:10CB4000187AB4EEE70AF1EE10FA0FDD37EE400A7C
:10CB50001220FDEEC07ACDED017ABDF9043093FBD1
:10CB6000F0F0C0F1050002E0642000E0002002B017
:10CB7000704700BF0088814500A07A4500007545D8
:10CB800000A0704500D06C4500C069450070674545
:10CB900000C06545000064450090614500705F4538
:10CBA00000A059451F2019F029BD000007B5FFF767
:10CBB000F9FF41F2680300934FF42E7240F6B83348
:10CBC0004FF4F87119F0A8FF1AF0F8FA0022054B9B
:10CBD0001AF084FC1AF03AFE00EE100A03B05DF879
:10CBE00004FB00BF00408F4008B500214FF0FF302C
:10CBF00019F0A8FD0021132019F0A4FD012118202F
:10CC000019F0A0FD0121182019F0BEFDFFF7CEFF9D
:10CC1000FFF7B8FE014B186008BD00BFE4230020F9
:10CC2000F7B5FFF7BFFF41F2680300934FF42E7290
:10CC300040F6B8334FF4F871144C154D154F164E9D
:10CC400019F06AFF236818442B68206001332B60B9
:10CC500019F098FC3B68C01A42F21073984211D93F
:10CC600019F090FC2A68236893FBF2F300EE103A67
:10CC7000B8EEC00A3860FFF785FE002330602B60F5
:10CC8000236000E0306803B0F0BD00BFF023002057
:10CC9000E823002090200020E423002008B5132082
:10CCA00019F084FD003018BF012008BD08B54FF011
:10CCB000FF3019F07BFD003018BF012008BD0000D7
:10CCC0001FB519F05FFC144B1B68C01A134B1B688F
:10CCD00098421DD9FFF7A4FF0E280FDC104B1A78DD
:10CCE000B2B901220F491A7001A819F070FF01A80A
:10CCF00004F0C4F901A819F028FF09E0FFF790FF3C
:10CD0000042802DC00F02AFC02E0054B00221A7025
:10CD100005B05DF804FB00BFE02300208C2000205C
:10CD2000EC2300205DA1030008B5022004F0C2FC42
:10CD3000014B01221A7008BDDC25002008B5032034
:10CD400004F0B8FC014B00221A7008BDDC2500205D
:10CD500010B58B6804461AF03BF8204610BD000061
:10CD6000014805F03FB900BF3824002038B5204CF9
:10CD7000204D2046294605F040F940F29112204608
:10CD80004FF4C87105F059F920464FF4FA7105F0D7
:10CD900051F92946184D204605F0B9FA284604F005
:10CDA00042FF0146204605F025F929462046134D4D
:10CDB00005F073FA2046124905F06FFA291D204646
:10CDC00005F06BFA28460F4A002104F0FCFF2046CC
:10CDD0000D4A002105F034F920460C4A012105F0E6
:10CDE0002FF9204605F04FF9BDE83840FFF7B8BFEE
:10CDF000382400203CE40500B0250020FC2300205E
:10CE0000BC2500203DD4010029CD01003DCD01000D
:10CE1000014B1878704700BFDC250020F8B5214D84
:10CE2000214C224E224FFF231A461946284605F070
:10CE30007DFA22461F4928461F4D1AF0E3FE1F497E
:10CE40001F4805F03DFB142310221E49284604F01C
:10CE500085FF28461C4D224631461AF0D3FE142386
:10CE600004221A49284604F079FF2846184D224624
:10CE700031461AF0C7FE174E3946284619F0A7FE6C
:10CE80002846154D224631461AF0BCFE3946284642
:10CE900019F09DFE224631462846BDE8F8401AF0BA
:10CEA000B1BE00BF3824002080200020091D0200F0
:10CEB0007CA10300A1220200B82500206BA1030081
:10CEC000B025002070A10300FC23002075A1030001
:10CED000202400204B6B03002C24002010B586B0CA
:10CEE0000146044603A819F0B0FE164903A819F03C
:10CEF0002BFF0146204619F099FE03A819F025FEE4
:10CF0000A368EBB1142300222146684619F060FFA4
:10CF10000021684619F03CFF01460B4804F0E5FE8D
:10CF20001422214603A8FFF713FF03A9204619F096
:10CF300096FE03A819F009FE684619F006FEDFE721
:10CF400006B010BD7AA10300B825002030B58FB01F
:10CF500001460723002204460AA819F039FF9D491B
:10CF60000AA819F003FF05460AA819F0EEFD1DB145
:10CF7000002000F0DEFA27E22A46082321460AA80C
:10CF800019F026FF94490AA819F0F0FE05460AA8F0
:10CF900019F0DBFD15B100F0DCFA15E22A46072393
:10CFA00021460AA819F014FF8C490AA819F0DEFEE0
:10CFB00005460AA819F0C9FD2DB1894907A819F03D
:10CFC00006FE072213E02A46082321460AA819F084
:10CFD000FFFE84490AA819F0C9FE05460AA819F0FF
:10CFE000B4FDEDB1804907A819F0F1FD08222146F2
:10CFF00004A8FFF7ADFE04A907A819F099FE0146A1
:10D000000AA819F022FE0AA8FFF768FF0AA819F07B
:10D010009CFD04A819F099FD07A819F096FDD3E12D
:10D020007249204619F0A2FEF0B10AA8FFF712FCDF
:10D030006F4904A819F0CBFD0A220C9901A819F038
:10D0400027FE01A904A819F073FE014607A819F0EC
:10D05000FCFD07A8FFF742FF07A819F076FD01A81D
:10D0600019F073FD04A8D8E76249204619F07EFE46
:10D07000024658B1604907A819F0A9FDFFF7D0FD95
:10D080000A22014604A819F015FEB4E70823214638
:10D090000AA819F09DFE59490AA819F067FE05462D
:10D0A0000AA819F052FD95B155490AA819F08FFD4B
:10D0B0000AA8FFF713FF0AA819F047FD0AA80822DB
:10D0C0002146FFF745FE0AA803F0D8FF79E14D4954
:10D0D000204619F04BFE08B14B490CE04B49204665
:10D0E00019F044FE08B14A4905E04A49204619F0C2
:10D0F0003DFE38B148490AA819F069FD0AA8FFF7B2
:10D10000EDFE5EE10C23002221460AA819F060FE24
:10D1100042490AA819F02AFE05460AA819F015FD89
:10D12000002D33D0214601A80C22FFF711FE3C4907
:10D1300001A819F01BFE08B1012007E0394901A838
:10D1400019F014FE08B1032000E00720FFF7A2FB4E
:10D15000354907A819F03BFD0C22214604A8FFF72A
:10D16000F7FD04A907A819F0E3FD01460AA819F084
:10D170006CFD0AA8FFF7B2FE0AA819F0E6FC04A8A5
:10D1800019F0E3FC07A819F0E0FC78E02A460A232E
:10D1900021460AA819F01CFE24490AA819F0E6FD48
:10D1A00005460AA819F0D1FC002D6AD0214601A835
:10D1B0000A22FFF7CDFD1E4901A819F0D7FD08B1DD
:10D1C00032203BE01B4901A819F0D0FDA0B3C820D4
:10D1D00034E000BF7DA1030085A103008EA1030000
:10D1E00096A103009EA10300A7A10300B0A1030024
:10D1F000B8A10300C1A10300C9A10300D2A103008B
:10D20000DBA10300E6A10300EDA10300F7A10300E9
:10D21000FEA1030008A203000EA2030017A2030050
:10D2200024A2030028A203002CA2030039A20300B9
:10D23000F4DF050073A103004FF4AF7001F048F86C
:10D24000624907A819F0C3FC0A22214604A8FFF787
:10D250007FFD04A907A819F06BFD01460AA819F083
:10D26000F4FC0AA8FFF73AFE0AA819F06EFC04A81D
:10D2700019F06BFC07A819F068FC01F017F801A879
:10D28000A0E02A46062321460AA819F0A1FD50492C
:10D290000AA819F06BFD05460AA819F056FC5DB105
:10D2A000062221460AA8FFF753FD0AA804F0D2FA85
:10D2B0000AA819F04AFC0EE02A46052321460AA8CE
:10D2C00019F086FD43490AA819F050FD05460AA841
:10D2D00019F03BFC3DB1404907A819F078FC04A8BF
:10D2E00004F058FB87E62A46082321460AA819F0CD
:10D2F0006FFD3A490AA819F039FD05460AA819F048
:10D3000024FC45B10AA808222146FFF721FD0AA8FE
:10D3100003F00EFF55E02A46082321460AA819F01B
:10D3200057FD2F490AA819F021FD05460AA819F052
:10D330000CFC45B10AA808222146FFF709FD0AA8FE
:10D3400003F020FF3DE02A46082321460AA819F0F1
:10D350003FFD24490AA819F009FD05460AA819F05D
:10D36000F4FB45B10AA808222146FFF7F1FC0AA800
:10D3700003F058FF25E02A46082321460AA819F0A1
:10D3800027FD19490AA819F0F1FC05460AA819F069
:10D39000DCFB75B92A46082321460AA819F018FDB6
:10D3A00012490AA819F0E2FC05460AA819F0CDFBBB
:10D3B00055B10AA808222146FFF7CAFC0AA803F0C3
:10D3C00009FF0AA819F0C1FB0FB030BD44A2030049
:10D3D0004FA203005DA2030056A2030063A2030054
:10D3E0006CA2030075A203007EA2030087A20300C3
:10D3F0001FB50E49044619F0B9FC08B10C4905E007
:10D400000C49204619F0B2FC50B10B4901A819F0A3
:10D41000DEFB01A8FFF762FD01A819F096FB02E010
:10D420002046FFF793FD04B010BD00BF90A203009B
:10D4300098A20300A3A20300AAA2030070B50B6880
:10D440002B4C1B692B4E8AB008460D469847236823
:10D450003060184416220021206004A81AF07AFCDB
:10D460002B682846DB6898473268014604A81AF002
:10D470004BFC214901A819F0E8FB04A901A819F007
:10D4800063FC01461C4819F0D1FB01A819F05DFBB3
:10D4900021681948023919F07BFC03780D2B25D13E
:10D4A00021681548013919F073FC03780A2B1DD146
:10D4B000236811490022023B01A819F089FC01A947
:10D4C0000E4819F0CCFB01A819F03FFB0C490A48A3
:10D4D00019F002FC00230949236001A819F0B5FBEB
:10D4E00001A8FFF785FF01A819F02FFB0AB070BD56
:10D4F000F4230020F82300202C24002020240020E6
:10D500007CA10300BFF34F8F0549064BCA6802F4A4
:10D51000E0621343CB60BFF34F8F00BFFDE700BF56
:10D5200000ED00E00400FA053CDF704744DF70477F
:10D53000704708B5044604F06DF82CB14FF08043F5
:10D540000122C3F81C2502E00120FFF7EFFFFFF7DF
:10D55000D9FF08B504F05EF8FFF7D4FF10B501203D
:10D560004FF0A04404F0BAFAFFF705F901F01CF9F6
:10D5700004F050F80021112019F0E4F8D4F84437F1
:10D5800023F44033C4F84437D4F8443743F4003329
:10D59000C4F844370021132019F0D4F8D4F84C37DC
:10D5A00023F44033C4F84C37D4F84C3743F44033B9
:10D5B000C4F84C37BDE81040FFF7B6BF30B587B0B0
:10D5C0000D4603F0EFFB60B104F0C2FA684604F0C8
:10D5D000F3FA9DF80240A21E5442544104F0A4FA0A
:10D5E0000CE004F0A1FA40B1684604F0E5FA9DF8B9
:10D5F0000040631F5C425C4100E00446019B2B80BD
:10D60000029BAC7300206B8007B030BD28200EF069
:10D610000DB813B502AC002104F8010D122019F069
:10D62000B3F82046012100F059FA0121122019F027
:10D63000ABF802B010BDF7B5054617462A200C46D8
:10D640001E46FFF7E6FF2B0A7A1E04218DF80430F0
:10D65000EBB215440DEB01001A442D0A8DF805308C
:10D660008DF807208DF8065000F038FA2B20FFF7D0
:10D67000D0FF230A8DF80430731EE2B204211C444B
:10D680000DEB01001344240A8DF805208DF80730B6
:10D690008DF8064000F022FA2C20FFF7BAFF03B005
:10D6A000F0BD08B5012000F0DFF900211920BDE828
:10D6B000084019F069B808B51920012119F064F87B
:10D6C0000020BDE8084000F0CFB92DE9F041B1F9E4
:10D6D00004308846B1F90010B8F90240591AB8F977
:10D6E00006304D1C191B4C1C06461746FFF7D9FF88
:10D6F00023462A46B8F90210B8F90000FFF79BFF4D
:10D7000004FB05F13846490000F0E8F9FFF7D3FFC4
:10D710003046BDE8F0410DF0D3BE10B50446FFF72A
:10D72000C0FF24B12920FFF774FF112003E010206F
:10D73000FFF76FFF2820FFF76CFFBDE81040FFF7F1
:10D74000BABF2DE9F04F01218BB0192018F0FAFF74
:10D750000121122018F0F6FF01211A2018F0F2FF23
:10D760000121092018F0EEFF0121192019F00CF811
:10D770000121122019F008F801211A2019F004F8EB
:10D78000142018F017FF00211A2018F0FDFF642064
:10D7900018F010FF01211A200AAC18F0F5FF6420E0
:10D7A00018F008FF0026FFF77CFF3620FFF731FF57
:10D7B00004F81C6D0121204600F090F93A20FFF793
:10D7C00028FF0525012120468DF80C5000F086F930
:10D7D000B220FFF71EFF0C273323294620468DF881
:10D7E0000F308DF810308DF80E608DF80C708DF8BC
:10D7F0000D7000F073F9B720FFF70BFF35230121FF
:10D8000020468DF80C3000F069F9BB20FFF701FFCE
:10D810001923012120468DF80C3000F05FF9C0205B
:10D82000FFF7F7FE4FF02C0A0121204601258DF865
:10D830000CA000F053F9C220FFF7EBFE294620466A
:10D840008DF80C5000F04AF9C320FFF7E2FE1223D6
:10D85000294620468DF80C3000F040F9C420FFF72F
:10D86000D8FE4FF02008294620468DF80C8000F0A5
:10D8700035F9C620FFF7CDFE0F23294620468DF847
:10D880000C3000F02BF9D020FFF7C3FEA4238DF855
:10D890000C300221A12320468DF80D3000F01EF936
:10D8A000E020FFF7B6FE2B208DF8110054200D214B
:10D8B0008DF813004C2004238DF80E108DF8140001
:10D8C0008DF8161018200B21D02211251F268DF857
:10D8D0000D3000934FF0130B4FF023034FF03F092F
:10D8E0008DF815008DF8171020460E218DF80C20AC
:10D8F00001928DF819308DF80F508DF810B08DF819
:10D9000012908DF8186000F0E9F8E120FFF781FE31
:10D91000009B8DF80D3044238DF8133051238DF882
:10D9200014302F23019A8DF815300E214FF0230368
:10D9300020468DF80C208DF819308DF80E708DF87A
:10D940000F508DF810B08DF811A08DF812908DF851
:10D9500016608DF817608DF8188000F0BFF8212050
:10D96000FFF757FE2846FFF754FE782018F022FEF6
:10D970002920FFF74EFE2846FFF74BFE2920FFF730
:10D9800048FEFFF798FE0BB0BDE8F08F10B5174CBE
:10D9900092B0FFF7D6FE07F0EFF9002214494FF4DA
:10D9A000E15320460DF0D7FC08A80DF0C1FCF02390
:10D9B000ADF82030ADF8223008A80E4B0B93099437
:10D9C0000DF0D8FC01A80DF0B7FD01238DF804304F
:10D9D00001A8094B02930DF0C1FD00210A2017F0A8
:10D9E00081F917F01FF912B010BD00BFE02500202B
:10D9F000FC250020CBD60100BDD5010008B50121D2
:10DA0000022018F09FFE0121032018F09BFE002148
:10DA1000042018F097FE0121192018F093FE01212F
:10DA2000022018F0B1FE0121032018F0ADFE012103
:10DA3000192018F0A9FE0B4B0222C3F80825032277
:10DA4000C3F80C250422C3F810254FF00042C3F898
:10DA50002425FF210022C3F80423C3F8C015C3F80E
:10DA6000542508BD00300240074B08B9194603E0B1
:10DA70000722C3F800257047D3F8002512B9C1F872
:10DA80000025F9E7704700BF00300240D0F80835A4
:10DA90001B0230B543F4403302F5A2750D4C43F040
:10DAA000010344F82530CB00920003F1804303F5D5
:10DAB000F83302F1804202F5C2421430C3F8102557
:10DAC000C3F81405012303FA01F1034BC3F804154D
:10DAD00030BD00BF0060004000F001400129F8B5F2
:10DAE00005460C4605D1082211461E48FFF7CEFF19
:10DAF0000CE01D4B0022C3F8302503F5C833C3F8F2
:10DB00005025C3F854250822C3F80425154B0021DD
:10DB10000A461846FF260127FF2C05EB010EC3F825
:10DB2000182198BF0919C3F8102188BFFF31C3F825
:10DB3000202188BFFF3CC3F844E596BFC3F84845A1
:10DB4000C3F848650024C0F83425C0F838250761BB
:10DB5000D3F818E1BEF1000FFAD0C0F81821002C5C
:10DB6000DAD1F8BD00300240006000400129F8B56C
:10DB700005460C4605D1082211461E48FFF786FFD0
:10DB80000CE01D4B0022C3F8302503F5C833C3F861
:10DB90005025C3F854250822C3F80425154B00214D
:10DBA0000A461846FF260127FF2C05EB010EC3F895
:10DBB000182198BF0919C3F8102188BFFF31C3F895
:10DBC000202188BFFF3CC3F84425C3F84825C3F88B
:10DBD00034E596BFC3F83845C3F8386500240761BB
:10DBE000D0F818E1BEF1000FFAD0C0F81821002CCF
:10DBF000DAD1F8BD0030024000600040084B1A78CE
:10DC000002705A7842709A788270DA78C2701A7903
:10DC100002715A7942719A798271DB79C3717047C6
:10DC20003D5E002008B50120FFF71EFF0021052002
:10DC3000BDE8084018F0A8BD08B50520012118F07E
:10DC4000A3FD0020BDE80840FFF70EBF2DE9F0411D
:10DC50000546FFF7E7FF0A2018F0ACFC174C25B982
:10DC60002646AB274FF001080CE0B92301212046DE
:10DC70002370FFF733FF17E07378152B14D0B378B8
:10DC8000152B11D02023A370042130230B48E370FF
:10DC9000277084F80180FFF721FF03210748FFF771
:10DCA00065FF2378152BE7D1FFF7C6FF0035044B3E
:10DCB00018BF01251D70BDE8F08100BF3D5E00204A
:10DCC0003C5E002008B50121052018F03BFD052031
:10DCD000012118F059FD0120BDE80840FFF7B6BF4B
:10DCE0000E4B1B7810B513B10020FFF7AFFF0C4CA3
:10DCF000FFF798FF9F23204601212370FFF7EEFED8
:10DD000002212046FFF732FFFFF796FF0120FFF7C1
:10DD10009DFF2078637843EA002010BD3C5E002020
:10DD20003D5E002010B5044C23781BB917F0B0FFFE
:10DD30000123237010BD00BF495E0020034B1A78F9
:10DD40001AB100221A7017F0A5BF7047495E002073
:10DD500008B500211E2018F0F5FC0549054817F00C
:10DD60007DFF054B01221A70BDE80840FFF7E6BFB2
:10DD700095E00100DDE00100495E0020034B1878CA
:10DD800018B1FD283CBF024B18707047485E002058
:10DD9000465E0020014B1878704700BF465E0020A9
:10DDA00008B5044B1B781BB117F076FF024B1870B7
:10DDB00008BD00BF495E0020485E002010B51F4B23
:10DDC0001B78002B38D01E2828D81D4B23FA00F0D2
:10DDD000C30725D51B4A13781446DBB91A4A1370BA
:10DDE000FFF7A0FFFFF7CAFF431EDBB2FB2B08D8EB
:10DDF000164A13680133042B13601DDD01232370C1
:10DE000010BDFE2818D1114A13680133092B136085
:10DE1000F4DC10BDBDE81040FFF790BF2D28D9D02D
:10DE2000094B1C7844B901221A70FFF787FF074B92
:10DE30001C60044B1C7010BD10BD00BF942000205E
:10DE400001800040475E0020455E00204C5E0020BF
:10DE5000014B1878704700BF525E002010B5134B7D
:10DE600019784FF0A04301F5E07240F20C6043F8DE
:10DE700022000F4A127802F5E07443F824004FF0B4
:10DE800040234FF08060C3F824050620C3F8000546
:10DE9000C3F80815C3F80C25064B10224021C3F81F
:10DEA000802183F804131A6010BD00BF9C5E00201F
:10DEB000515E002000E100E0FFF7D0BFF8B5074653
:10DEC00016460C46B1B12A4D284618F0ADFC4FF06D
:10DED00040230121C3F888751962C3F83455C3F88B
:10DEE00038451960D3F84C2132B9D3F82421002ADF
:10DEF000F8D001E00846F8BD4FF040230022C3F8F7
:10DF00004C21D3F85C211AB9D3F82421002AF8D087
:10DF10004FF040230021C3F85C1116B9D3F8242137
:10DF20006AB14FF0402301225A61D3F80421002A3C
:10DF3000FBD04FF040230022C3F804210AE0012265
:10DF4000DA61D3F84821002AFBD04FF040230022A9
:10DF5000C3F848214FF04023D3F8242112B1002206
:10DF6000C3F82421D3F83C452C64E0B2F8BD00BFCF
:10DF7000545E002008B5044B1870044818F054FC97
:10DF8000034B01221A7008BD9E5E0020A05E002097
:10DF9000505E002070B5324B00221A70314B4FF0AA
:10DFA00040241B78C4F88835012506462E48256292
:10DFB000C4F8440518F04AFCC4F84805A560D4F834
:10DFC00050311BB9D4F82431002BF8D04FF0402346
:10DFD0000022C3F85021244818F038FC40B14FF01B
:10DFE0004023D3F860211AB9D3F82421002AF8D0AD
:10DFF0004FF040230022C3F860211A4616B9D3F827
:10E00000241169B1012353614FF04023D3F8042157
:10E01000002AFBD04FF040230022C3F804210AE07D
:10E020000122DA61D3F84821002AFBD04FF04023C7
:10E030000022C3F848214FF04023D3F8240168B1EF
:10E040000022C3F82421D3F8C404C3F8C40402286E
:10E0500004D004280CBF0320042070BD70BD00BF95
:10E06000505E00209E5E0020A05E0020074B1B78C3
:10E0700010B504464BB1064818F0F6FB28B9214606
:10E080000348BDE8104018F0C4BB10BD505E00202E
:10E09000A05E0020F8B50D4C0F461E460123154624
:10E0A0002370FFF767FF3846FFF7E0FF2E44B542C5
:10E0B00004D015F8010BFFF7D9FFF8E70120FFF7AF
:10E0C00069FF08B92070F8BDFF20F8BD525E00203E
:10E0D000014818F0ADBB00BF545E00202DE9F843A5
:10E0E000134C0F464FF0010815461E46814684F832
:10E0F0000080FFF73FFF3846FFF7B8FF4046FFF7C5
:10E1000049FF074678B9314642464846FFF7D6FEF2
:10E110002E44B54204D0FFF7DBFF05F8010BF8E70A
:10E120000023237000E0FF273846BDE8F88300BFD6
:10E13000525E00202DE9F0414FF04024D4F86431C4
:10E140007BB10023254EC4F86431254B01253046B0
:10E150001D7018F069FB4023C4F83465C4F83835E5
:10E1600025634FF04024D4F86831BBB11D4D1C4BE2
:10E17000DFF874800026C4F86861012728461E7005
:10E1800088F8007018F050FB88F800602846C4F842
:10E19000445518F05BFBC4F8480567634FF0402313
:10E1A000D3F804214AB10022C3F804210C4A1278A2
:10E1B0001AB1D3F83C25094B1A644FF04023D3F829
:10E1C000242142B10022C3F82421D3F8D024C3F87B
:10E1D000D02401225A61BDE8F08100BF545E0020C6
:10E1E0009D5E0020A05E0020505E002008B5074B19
:10E1F000074A99691170DA69064B07481A7018F0D6
:10E20000FDFA0648BDE8084018F0F8BA882D070066
:10E21000515E00209C5E0020545E0020A05E002025
:10E22000014600B101211B2018F0AEBA08B100214F
:10E2300000E00121102018F0A7BA000008B5012164
:10E240001B2018F07FFA0121102018F07BFA002122
:10E25000112018F077FA0020FFF7E2FF0020FFF707
:10E26000E5FF024B01221A7008BD00BFEC5E0020E2
:10E2700008B5064B1B780BB9FFF7E0FF112018F02B
:10E2800095FA003018BF012008BD00BFEC5E0020E9
:10E2900010B500210446102018F076FA18F072F933
:10E2A000014B2044186010BDF05E002008B500212D
:10E2B000102018F069FA18F065F9034B1B68184430
:10E2C000024B186008BD00BF98200020F05E0020BF
:10E2D000014B1860704700BF9820002010B5012145
:10E2E00004461B2018F050FA18F04CF9014B20445A
:10E2F000186010BDE85E002008B518F043F9094B1E
:10E300001B68984202D90020FFF790FF18F03AF9F5
:10E31000054B1B68984204D90020BDE80840FFF770
:10E320007FBF08BDF05E0020E85E0020494A38B596
:10E33000494B40214FF0004020240125C2F808033A
:10E34000C3F88010C3F8801183F806431960C2F83F
:10E350007C510021C2F80403112018F0F3F91120B8
:10E3600018F024FA3D4B003018BF012018704FF010
:10E37000A0441B78002BD4F8443714BF4FF440322C
:10E380004FF400321343C4F844370021132018F02F
:10E39000D9F9132018F00AFA314B003018BF0120C8
:10E3A00018701B78002BD4F84C3714BF4FF4403250
:10E3B0004FF400321343C4F84C3700214FF0FF30C4
:10E3C00018F0C0F94FF0FF3018F0F0F9254B00308D
:10E3D00018BF012018701B78002BD4F8FC3614BF2E
:10E3E0004FF440324FF400321343C4F8FC3600219E
:10E3F0001C2018F0A7F91C2018F0D8F91A4B00308F
:10E4000018BF012018701B78002BD4F8703714BF88
:10E410004FF440324FF400321343C4F870370021F8
:10E42000082018F08FF9082018F0C0F90F4B0030C1
:10E4300018BF012018701B78002BD4F8203714BFA8
:10E440004FF440324FF400321343C4F82037084BE6
:10E450001D7038BD0060004000E100E0FC5E00205F
:10E46000F55E0020FF5E0020085F0020005F0020B6
:10E47000FE5E002008B5FFF7EBFC10B903F0BEF814
:10E4800018B1034B01221A7008BD03F061FBF8E7D5
:10E49000095F002008B55D4BD3F87C21002A00F00D
:10E4A000B1800022C3F87C21112018F07FF9584A6E
:10E4B0000030137818BF0120984217D04FF0A043C6
:10E4C0001070D3F8441721F44031C3F84417127880
:10E4D000002AD3F8442714BF4FF440314FF40031E1
:10E4E0000A43C3F844274B4B01221A70132018F03B
:10E4F0005DF9494A0030137818BF0120984217D0BF
:10E500004FF0A0431070D3F84C1721F44031C3F8FA
:10E510004C171278002AD3F84C2714BF4FF440311F
:10E520004FF400310A43C3F84C273C4B01221A70C8
:10E530004FF0FF3018F03AF9394A0030137818BF1D
:10E540000120984217D04FF0A0431070D3F8FC166A
:10E5500021F44031C3F8FC161278002AD3F8FC26C7
:10E5600014BF4FF440314FF400310A43C3F8FC2686
:10E570002C4B01221A701C2018F018F92A4B00307D
:10E580001A7818BF0120904218D04FF0A04218709E
:10E59000D2F8701721F44031C2F8701719780029A9
:10E5A000D2F8701714BF4FF440304FF400300143DD
:10E5B000C2F870171B780BB9FFF75CFF082018F042
:10E5C000F5F81A4B00301A7818BF0120904219D084
:10E5D0004FF0A0421870D2F8201721F44031C2F851
:10E5E000201719780029D2F8201714BF4FF44030B3
:10E5F0004FF400300143C2F820171B7813B90C4BBD
:10E6000001221A70014BD3F87C3108BD0060004034
:10E61000FC5E0020F45E0020F55E0020F65E002027
:10E62000FF5E00200B5F0020085F0020005F0020DD
:10E630000A5F002008B5042003F03CF803F032F82C
:10E64000FEF734FB28B14FF47A70BDE80840FFF7BD
:10E6500045BEFFF72BFEBDE8084002F035B908B50E
:10E66000052003F027F803F01DF8FEF717FB28B18B
:10E670004FF47A70BDE80840FFF730BEFFF716FE92
:10E68000BDE8084002F020B910B5FFF7F1FD30B148
:10E69000164C17F077FF2368C01AC8280DD8144B02
:10E6A0001A7812B300221A7017F06CFF114B1B6816
:10E6B000BDE81040C01A02F049B917F063FF2060AE
:10E6C000062002F0F7FF38B9094B01221A7017F043
:10E6D00059FF084B186010BD02F0A0F82820FFF782
:10E6E000D7FDBDE8104002F0DDBF10BDF85E002090
:10E6F000FD5E0020045F002010B5012088B003F00B
:10E7000021FA072002F0D6FF70B902AC204603F0D0
:10E7100053FA08AB13E903008DE8030094E80F00F7
:10E7200002F022F903F0FAF908B0BDE8104002F057
:10E73000B9BF08B5092002F0BDFFBDE8084002F0EE
:10E74000B1BF000008B5134B1A781AB100221A7035
:10E75000FFF770FF104B1A781AB100221A70FFF7FA
:10E760007EFF0E4B1A781AB100221A70FFF78CFF49
:10E770000B4B1A781AB100221A70FFF7BDFF094B34
:10E780001A782AB100221A70BDE80840FFF7D1BFFD
:10E7900008BD00BF0B5F0020F65E0020F45E002085
:10E7A000095F00200A5F00204FF0A043D3F8442700
:10E7B00022F44032C3F84427D3F84427C3F844274F
:10E7C000D3F84C2722F44032C3F84C27D3F84C2717
:10E7D000C3F84C27D3F8FC2622F44032C3F8FC26B9
:10E7E000D3F8FC26C3F8FC26D3F8702722F4403275
:10E7F000C3F87027D3F87027C3F87027D3F8202701
:10E8000022F44032C3F82027D3F82027C3F820276A
:10E81000014B00221A707047FE5E002042F2107019
:10E82000704728207047704770477047704770479F
:10E83000704784B001A880E80E0004B0704784B02F
:10E8400001A880E80E0004B0704770477047704719
:10E850004CF250307047704784B001A880E80E0039
:10E8600004B070477047704784B001A880E80E007C
:10E8700004B070477047704784B001A880E80E006C
:10E8800004B07047704770477047704770477047D3
:10E8900070477047704770477047704770477047C0
:10E8A00070477047704770477047704770477047B0
:10E8B00070477047704770477047704770477047A0
:10E8C000704770477047704770477047054B1B682B
:10E8D0001A6810B4146B0A460146184623465DF8C0
:10E8E000044B1847CC20002008B50CF0B9FDBDE85A
:10E8F000084004F06CBF08B5FFF7F6FFBDE808401C
:10E9000007F010BC37B50446FFF7EEFF002113F007
:10E91000A3F900256060394913F034F80A23022274
:10E9200029466068009506F06FFDFFF7DDFF294678
:10E9300013F092F93249A06013F024F81923012250
:10E9400029460093A0680A2306F05EFDFFF7CCFF7E
:10E95000294613F081F92B49E06013F013F82D23B9
:10E96000012229460093E0680A2306F04DFDFFF7D7
:10E97000BBFF294613F070F92349206113F002F818
:10E98000412301222946009320690A2306F03CFD19
:10E99000FFF7AAFF294613F05FF91C49606112F0E6
:10E9A000F1FF552301222946009360690A2306F0EE
:10E9B0002BFDFFF799FF294613F04EF91449A0618A
:10E9C00012F0E0FF6923012229460093A0690A237F
:10E9D00006F01AFDFFF788FF294613F03DF90D49AF
:10E9E000E06112F0CFFF7D23009301220A23294624
:10E9F000E06906F009FD03B030BD00BF6CDE050024
:10EA000071DE050074DE050077DE05007ADE0500A4
:10EA100080DE050087DE050013B50446FFF764FFBE
:10EA2000002113F019F90949606012F0ABFF60682A
:10EA3000012112F0B7FB6FF03B03009300231A464D
:10EA40001946606806F0E0FC02B010BD91DE0500DA
:10EA500013B5FFF749FF002113F028FD0C490446C8
:10EA600013F0C8FC20460B4913F0AAFD2046C8212C
:10EA700007F0A6F92046084906F028FA002300937B
:10EA80001A461946204606F0BFFC02B010BD00BF72
:10EA90009BDE0500B4200020490B020013B5FFF7F0
:10EAA00023FF002113F002FD0C49044613F0A2FCE1
:10EAB00020460B4913F084FD2046C82107F080F959
:10EAC0002046084906F002FA002300931A46194628
:10EAD000204606F099FC02B010BD00BFA4DE050080
:10EAE000A8200020850B020013B5FFF7FDFE0021D2
:10EAF00013F0DCFC0C49044613F07CFC20460B4967
:10EB000013F05EFD2046C82107F05AF92046084957
:10EB100006F0DCF9002300931A461946204606F059
:10EB200073FC02B010BD00BFB1DE05009C200020C8
:10EB3000C50B0200F7B50546FFF7D6FE002113F01E
:10EB40008BF8002468603949394E12F01BFF2346C8
:10EB5000012221466868009406F056FCFFF7C4FEC7
:10EB600021460FF05FFA6FF03107A860314606F0DA
:10EB7000ADF922466FF0360300972146A86806F0EB
:10EB800043FC2146A86813F067F82A49286112F06F
:10EB9000F9FEFFF7A9FE21460FF044FA3146E8607E
:10EBA00006F094F92246372300972146E86806F0DC
:10EBB0002BFC2146E86813F04FF81F49686112F0FA
:10EBC000E1FEFFF791FE21460FF02CFA3227A861F3
:10EBD000314606F07BF922466FF036032146A869DC
:10EBE000009706F011FC2146A86913F035F8134987
:10EBF000286212F0C7FEFFF777FE21460FF012FAE7
:10EC00003146E86106F062F9372322462146E86979
:10EC1000009706F0F9FB2146E86913F01DF8084952
:10EC2000686203B0BDE8F04012F0ACBEBCDE050087
:10EC3000CDE80100DBE20500CBE10500DDE30500E6
:10EC400016E40500F7B50546FFF74EFE002113F068
:10EC500003F8002468602949294F12F093FE2346E7
:10EC6000012221466868009406F0CEFBFFF73CFEC7
:10EC7000214612F0F1FF2349A86012F083FE6FF0E5
:10EC80001D03224621460093A868234606F0BCFBDC
:10EC9000FFF72AFE21460FF0C5F93226E860394613
:10ECA00006F014F922466FF036032146E868009614
:10ECB00006F0AAFB2146E86812F0CEFF124968610F
:10ECC00012F060FEFFF710FE21460FF0ABF9394657
:10ECD000286106F0FBF83723224621462869009672
:10ECE00006F092FB2146286912F0B6FF0749A86199
:10ECF00003B0BDE8F04012F045BE00BFDFDE050006
:10ED0000CDE80100C5DE0500E7DE0500EEDE05000A
:10ED10000A46C069014912F09FBE00BFF6DE050039
:10ED200010B5C468FDF77CFF034902462046BDE8E4
:10ED3000104012F091BE00BF0BDF0500F0B587B0A8
:10ED40000446FFF7D1FD002112F086FF0025606028
:10ED5000504912F017FE2B460122294660680095A3
:10ED600006F052FBFFF7C0FD294612F075FF294659
:10ED7000A060064603A802F07DFA059B03B1039F3D
:10ED800045493A46304612F067FE03A817F0DDFE0B
:10ED90006FF04503009300231A461946A06806F059
:10EDA00033FBFFF7A1FD00210FF03CF93B49206147
:10EDB00006F08CF86FF00905002211466FF036035B
:10EDC0000095206906F020FB0021206912F044FF25
:10EDD0003349A06112F0D6FDFFF786FD00210FF048
:10EDE00021F92E49606106F071F80022114637239F
:10EDF0000095606906F008FB0021606912F02CFFA5
:10EE00002849E06112F0BEFDFFF76EFD002112F00F
:10EE100023FF2549E06012F0B5FD23230093002372
:10EE20001A461946E06806F0EFFAFFF75DFD00218B
:10EE30000FF0F8F81949206206F048F84E25002234
:10EE400011466FF03603206A009506F0DDFA0021C6
:10EE5000206A12F001FF1549A06212F093FDFFF73E
:10EE600043FD00210FF0DEF80C49606206F02EF839
:10EE7000002211463723606A009506F0C5FA00218A
:10EE8000606A12F0E9FE0A49E06212F07BFD07B009
:10EE9000F0BD00BF10DF05001ADF0500CDE801005E
:10EEA000E7DE050022DF050027DF05002EDF050075
:10EEB00033DF050070B586B085680446002103A8DD
:10EEC00002F0D8F9059B03B1039E09493246284652
:10EED00012F0C2FD03A817F038FE6FF0450300934F
:10EEE00000231A461946A06806F08EFA06B070BDD7
:10EEF00085E0050070B586B004466D46684602F0B0
:10EF00005BFE0FCD261D0FC695E8030086E80300C3
:10EF100012492279206A12F09FFD6279606A1049D5
:10EF200012F09AFDA279A06A0E4912F095FDA2682E
:10EF3000E06A0D4912F090FDE2680C49206B12F076
:10EF40008BFD1C20A46B17F031FC094902462046BA
:10EF500006B0BDE8704012F07FBD00BF39DF05008C
:10EF600047DF050059DF050065DF05006BDF0500A1
:10EF700071DF0500F0B5594B89B00446012602A89F
:10EF800002AD1E7002F018FE0FCD271D0FC795E8C9
:10EF9000030087E80300FFF7A7FC002112F05CFEE6
:10EFA0000025E0614E494F4F12F0ECFC00952B46D6
:10EFB00032462946E06906F027FAFFF795FC294614
:10EFC00012F04AFE22792062394612F045FD1923DB
:10EFD000009332460A232946206A06F015FAFFF705
:10EFE00083FC294612F038FE62796062394612F0DD
:10EFF00033FD2D23009332460A232946606A06F02A
:10F0000003FAFFF771FC294612F026FEA279A062EE
:10F01000354912F021FD4123009332460A23294647
:10F02000A06A06F0F1F9FFF75FFC294612F014FE22
:10F03000A268E0622D4912F00FFD5523009332467D
:10F040000A232946E06A06F0DFF9FFF74DFC29465E
:10F0500012F002FEE2682063254912F0FDFC6923EC
:10F06000009332460A232946206B06F0CDF9FFF7BC
:10F070003BFC294612F0F0FDE17E637E227E606358
:10F080000191A17E00911B4912F0E6FC676BFFF72E
:10F090002BFC7D2332460146009338460A2306F0B6
:10F0A000B3F9FFF721FC294612F0D6FD0546A0630F
:10F0B0001C2017F07BFB10490246284612F0CCFCBE
:10F0C000A46BFFF711FC9123009301460A233246FB
:10F0D000204606F099F909B0F0BD00BFF0600020AD
:10F0E0007FDF050039DF050059DF05008BDF0500F4
:10F0F00093DF05009BDF050071DF050073B5044653
:10F10000FFF7F2FB002112F0A7FD0025E06019498E
:10F1100012F038FC0A2302222946E068009506F026
:10F1200073F9FFF7E1FB294612F096FD12492061C1
:10F1300012F028FC192301222946009320690A2392
:10F1400006F062F9FFF7D0FB294612F085FD6061F9
:10F150000646FEF7C5FD09490246304612F07CFC22
:10F160002D23009301220A232946606906F04CF9F9
:10F1700002B070BDBBDF0500C1DF0500D4DF0500B4
:10F1800037B50446FFF7B0FB002112F065FD1B49BF
:10F19000606012F0F7FB6FF01D03009300231A4626
:10F1A000194604F15405606806F02EF92846144902
:10F1B00007F040FC5F2205210A200CF092FC114B65
:10F1C000A367A4F87400FFF78FFB002112F044FD41
:10F1D0002946E06006F0A8FB0B49E06812F0D2FB7C
:10F1E000E468FFF781FB1423009301466FF01303DB
:10F1F0000022204606F008F903B030BDDCDF050030
:10F2000080AA002018220020E5DF0500114B73B50D
:10F21000012605461E70FFF767FB002112F01CFD5A
:10F22000002468600C4912F0ADFB234632462146AB
:10F230006868009406F0E8F8FFF756FB214615F0E1
:10F2400043F80094A86023462246214606F0DCF8E5
:10F2500002B070BDF060002015DF0500F7B5044670
:10F26000FFF742FB002115F02FF86422A06217215E
:10F2700006F052FDB4F93420A06A784F01210EF057
:10F2800095FB616B236BA06A0131C91A002500222E
:10F2900009B20EF021FB6FF0030308222946A06A91
:10F2A000009506F0B1F82946A06A05F0A7FDA06A0E
:10F2B00013F09AFC294605F0A1FDFFF715FB29463E
:10F2C00012F0CAFC636BE062226B654912F0C4FB6A
:10F2D0002B4602222946E06A009506F095F8FFF7D2
:10F2E00003FB294611F0F6FD636860615A68294600
:10F2F00011F04EFE636860695A68012111F048FE02
:10F30000294660690EF028FE1C226069202105F064
:10F31000FBFF3946606905F0D9FDFFF7E5FA29469C
:10F3200012F09AFC636860620226196812F02AFBE8
:10F330002B460C226169606A009606F065F8FFF7BB
:10F34000D3FA294611F0C6FDA368A0615A68294680
:10F3500011F01EFEA368A0695A68012111F018FE81
:10F360002946A0690EF0F8FD1C22A069882105F04D
:10F37000CBFF3946A06905F0A9FDFFF7B5FA29468C
:10F3800012F06AFCA3686062196812F0FBFA2B465F
:10F390000C22A169606A009606F036F8FFF7A4FA1D
:10F3A000294611F097FDE368E0615A68294611F09B
:10F3B000EFFDE368E0695A68012111F0E9FD294693
:10F3C000E0690EF0C9FD8422E069202105F09CFF70
:10F3D0003946E06905F07AFDFFF786FA294612F012
:10F3E0003BFCE3686062196812F0CCFA2B460C22F1
:10F3F000E169606A009606F007F8FFF775FA29469A
:10F4000011F068FD236920625A68294611F0C0FD99
:10F410002369206A5A68012111F0BAFD2946206A41
:10F420000EF09AFD8422206A882105F06DFF39468E
:10F43000206A05F04BFDFFF757FA294612F00CFC45
:10F4400023696062196812F09DFA00962B460C221F
:10F45000216A606A05F0D8FF03B0F0BDCDE8010075
:10F46000EADF050030B58BB00446264903A819F041
:10F47000FBF94FF080532449D3F8A820D3F8A430E7
:10F4800092B206A819F0B4F9FFF72EFA002112F093
:10F49000E3FB002560601D4912F074FA2B4601223F
:10F4A00029466068009505F0AFFFFFF71DFA294671
:10F4B00012F0D2FB1649A06012F064FA03AAA06809
:10F4C000144912F0C9FA2B460C226168A068009515
:10F4D00005F09AFFFFF708FA294612F0BDFB0E4926
:10F4E000E06012F04FFA06AAE0680C4912F0B4FA94
:10F4F00000952B460C22A168E06805F085FF0BB053
:10F5000030BD00BFF0DF0500F6DF0500FFDF0500BE
:10F510005EE0050069E0050077E005007EE005009B
:10F5200030B587B0044617F02DF84FF47A733C21BC
:10F53000B0FBF3F090FBF1F56FF03B014FF461632A
:10F54000104A90FBF3F390FBF2F201FB050001FB84
:10F55000035100916FF0170101FB023301900A493A
:10F5600002A819F045F9A56817F00CF807490246FA
:10F57000284612F071FA02AA0549E06812F06CFA06
:10F5800007B030BD8051010088E005009AE0050019
:10F59000A5E00500F7B50446FFF7A6F9002112F033
:10F5A0005BFB002560603E493E4F12F0EBF92B46B5
:10F5B000012229460095606805F026FFFFF794F9BF
:10F5C000294612F049FB3946A06012F0DBF9A66823
:10F5D000FFF78AF91E23009301220A2301463046D1
:10F5E00004F1540605F010FF30462F4907F022FAC7
:10F5F0005F2205210A200CF074FA2C4BA367A4F8B3
:10F600007400FFF771F9294612F026FB3146E060DD
:10F6100006F08AF93946E06812F0B4F9E768FFF7B6
:10F6200063F96FF013032A460146009338462B46D0
:10F6300005F0EAFEFFF758F9294612F00DFB3146B6
:10F64000206106F071F91A49206912F09BF92669C8
:10F65000FFF74AF932232A460146009330462B46EB
:10F6600005F0D2FE2569FDF70FF91249024628463A
:10F6700012F0F2F9A06806F073FD04F114050146DA
:10F68000284607F0D7F95F2205210A200CF029FA55
:10F69000A086A068294603B0BDE8F04006F044B952
:10F6A000EEDE0500E5DF050080AA0020182200201C
:10F6B0004C2C070090E105002DE9FF41C668044687
:10F6C000002101A801F066FE039B0BB1DDF8048068
:10F6D0004146304612F056F901A817F036FA0021DB
:10F6E00001A8266901F0E6FE039B03B1019F39469C
:10F6F000304612F047F901A817F027FA002101A8B7
:10F70000A46801F08FFE039B03B1019D29462046AA
:10F7100012F038F901A817F018FA04B0BDE8F0812A
:10F7200073B50546FFF7E0F8002112F095FA0024C2
:10F7300068604A4912F026F90094234601222146C6
:10F74000686805F061FEFFF7CFF8214612F084FAF1
:10F750004349A86012F016F91923009301220A23E5
:10F760002146A86805F050FEFFF7BEF8214612F0CA
:10F7700073FA3C49E86012F005F92D230093012249
:10F780000A232146E86805F03FFEFFF7ADF8214661
:10F7900012F062FA4FF080432861D3F80024324916
:10F7A00012F05AF94123009301220A2321462869C5
:10F7B00005F02AFEFFF798F8214612F04DFA68612D
:10F7C000064601F021FF0830284955F82020304630
:10F7D00012F042F95523009301220A232146686959
:10F7E00005F012FEFFF780F8214612F035FA204BA3
:10F7F000204A5968204BA861A14208BF1A461F49F8
:10F8000012F02AF96923009301220A232146A869EC
:10F8100005F0FAFDFFF768F8214612F01DFA1849C5
:10F82000E86112F019F97D23009301220A23214691
:10F83000E86905F0E9FDFFF757F8214611F024FAD1
:10F840001049054611F072F900942346052221461D
:10F85000284605F0D9FD02B070BD00BFC1E005002B
:10F86000C7E00500CFE00500D7E00500E1E00500B6
:10F87000001000E0B0E00500B9E00500ECE0050094
:10F88000FAE0050060DE05001FB504466846FCF797
:10F89000E1FFBDF90020A068114912F0DDF8BDF9C3
:10F8A0000220E0680F4912F0D7F8BDF90420206962
:10F8B0000D4912F0D1F89DF8062060690B4912F04D
:10F8C000CBF8029AA0690A4912F0C6F89DF80C20FC
:10F8D0000849E06904B0BDE8104012F0BDB800BFAF
:10F8E00065DF05006BDF05000EE1050014E1050092
:10F8F0001DE1050027E105002DE9F04391B0044624
:10F9000006AD06A801F086FF0FCD261D0FC695E8AF
:10F91000030002AD86E803002846FCF79BFF95E84C
:10F920000F0004F11C0604F12C0586E80F002846A0
:10F93000AA4907F07FF85F2205210A200CF0D1F8D0
:10F94000A74B2365A4F84C00FEF7CEFF002112F070
:10F9500083F9A3692269E0670093A249636912F001
:10F960007BF82946E06F05F0DFFF6FF02703009377
:10F9700000231A461946E06F05F046FDFEF7B4FF76
:10F98000002112F069F96368E268C4F8800000930E
:10F990009549A36812F060F82946D4F8800005F074
:10F9A000C3FF4FF01E0800231A461946D4F8800002
:10F9B000CDF8008005F028FDFEF796FF002112F03B
:10F9C0004BF9C4F888000546FEF78EFF052619237B
:10F9D000014601222846009605F016FDD4F888500D
:10F9E000FDF71EF981490246284612F035F8FEF768
:10F9F0007BFF002112F030F9C4F884000546FEF7C1
:10FA000073FF0122334601460096284605F0FCFCB0
:10FA10007749D4F8840011F0B5FFD4F8840006F0DB
:10FA20009FFB04F18C050146284607F003F8F823F4
:10FA300084F8AC3094F8AD30D4F8840003F0E003DF
:10FA40006FF3471384F8AD306A4BC4F8B0302946E1
:10FA500005F06AFFD4F8880006F082FB04F1CC05BB
:10FA60000146284606F0E6FF5F2231460A200CF0E8
:10FA700038F82946A4F8EC00D4F8880005F054FFC3
:10FA8000FEF732FF002111F0FFF85B49C4F84C018A
:10FA900011F04CF86FF02109002319460422D4F824
:10FAA0004C01CDF8009005F0AFFCFEF71DFF0021E2
:10FAB00012F0D2F8F021206706F082F9256FFEF7E8
:10FAC00069F94E4902462846002511F0C5FF022378
:10FAD0001322D4F84C110095206F05F095FCFEF729
:10FAE00003FF294611F0D0F84549C4F8500111F040
:10FAF0001DF8782304222946D4F85001CDF800904F
:10FB000005F082FCFEF7F0FE294612F0A5F8F02180
:10FB1000606706F055F9626A3849606F11F09CFF22
:10FB200002231322D4F850110095606F05F06CFC8D
:10FB3000FEF7DAFE294611F0A7F83249C4F854015D
:10FB400010F0F4FF6FF00703042229460093D4F865
:10FB500054012B4605F058FCFEF7C6FE294612F06C
:10FB60007BF8A067D4F8840006F0FAFA04F58675ED
:10FB70000146284606F05EFF5F2231460A200BF060
:10FB8000B0FF214BC4F830312946A4F82C01A06FF6
:10FB900005F0CAFEF021A06F06F012F91B49A06F14
:10FBA00011F0F0FE41460DA8A56F01F0ABFB0F9BD5
:10FBB00003B10D9F3946284611F0E4FE0DA816F05A
:10FBC000C4FF0023009313220223D4F85411A06F22
:10FBD00005F01AFC11B0BDE8F08300BF80AA002038
:10FBE000182200208BE0050034E105000BDF050042
:10FBF00043E1050048220020E446060090E10500AC
:10FC00007CA00400FCE4050004210020B0300700C3
:10FC100010B5044686B00430FDF7F0FFE17A059197
:10FC2000A17A0491617A0391217A0291E17901919B
:10FC3000A1790091637922790249206911F00CFFC2
:10FC400006B010BD47E1050038B585680446FCF7ED
:10FC5000E7FF10490246284611F0FEFEE568FCF772
:10FC6000DFFF0C490246284611F0F6FEFDF716F8B4
:10FC700030B15F2205210A200BF033FFA08602E09D
:10FC8000054B1B88A38604F11401A068BDE8384029
:10FC900005F04ABE0BDF0500BCA8030010B5044602
:10FCA000FEF76CF8FD28024609D001D880B10BE0C0
:10FCB000FE2802D0FF280BD006E00A4900E00A49DE
:10FCC000A06811F0C9FE03E00849A06811F0C4FE65
:10FCD000E468FEF75FF8064902462046BDE810409A
:10FCE00011F0BABE6AE1050077E105008CE105007C
:10FCF00087E1050070B58CB0044606AD06A801F09A
:10FD000089FD0FCD261D0FC695E8030002AD86E8DC
:10FD100003002846FCF79EFD95E80F0004F11C0641
:10FD200086E80F00A3690093226963692A49E06F9E
:10FD300011F092FE6368E26828490093D4F88000CD
:10FD4000A36811F089FED4F88850FCF769FF2449B4
:10FD50000246284611F080FE256FFEF71BF8214968
:10FD60000246284611F078FE626A1E49606F11F063
:10FD700073FEFDF74DF820B11B4B5B88A4F8AC3047
:10FD80000BE060F0070384F8AC3094F8AD3060F31A
:10FD9000040360F3471384F8AD3004F18C01D4F808
:10FDA000840005F0C1FDFCF779FF38B15F22052121
:10FDB0000A200BF096FEA4F8EC0003E00A4B1B8827
:10FDC000A4F8EC30D4F8880004F1CC010CB0BDE804
:10FDD000704005F0A9BD00BF8BE0050034E10500CF
:10FDE0000BDF050090E10500BCA80300FDF7A6BFEE
:10FDF00001F03CBC0120FDF729BF0020FDF726BF24
:10FE000010B50446FCF79AFDFCF792FD2469FCF757
:10FE10003BFD034902462046BDE8104011F01CBEE0
:10FE200090E10500FCF7ABBC10B50446FCF798FD6B
:10FE3000FCF77EFD2469FCF727FD034902462046B6
:10FE4000BDE8104011F008BE90E1050000B503695F
:10FE50008B428BB021D1032A1FD1204904A816F070
:10FE6000B6FE16F08FFB0A22014607A816F010FF17
:10FE700007A904A816F05CFF014601A816F0E5FEEC
:10FE800001A8FDF72BF801A816F05FFE07A816F0F1
:10FE90005CFE04A816F059FE1CE04369994203D1A8
:10FEA000032A01D10E490CE0036A994203D1032AC7
:10FEB00001D10C4905E0436A99420BD1032A09D1CB
:10FEC000094907A816F083FE07A8FDF707F807A859
:10FED00016F03BFE0BB05DF804FB00BF93E105009C
:10FEE0009FE10500ACE10500B9E1050007B501237C
:10FEF0000022009311460FF069FB03B05DF804FB8C
:10FF00002DE9F0414E4BDFF8548188B001260546BB
:10FF10001E70FEF7E9FC002111F09EFE00246860CF
:10FF2000484911F02FFD2346324621466868009467
:10FF300005F06AFAFEF7D8FC214611F08DFE6FF04D
:10FF40000E07A861404911F01DFD234622462146B7
:10FF5000A869009705F058FAFEF7C6FC21460EF096
:10FF600061F84146A86004F0B1FF6FF03603052246
:10FF70002146A868009405F047FAA868FFF7B6FF85
:10FF80002146A86811F068FE3049286111F0FAFC9A
:10FF9000FEF7AAFC21460EF045F84146E86004F061
:10FFA00095FFE868FFF7A2FF372305222146E8689E
:10FFB000009405F029FA2146E86811F04DFE244925
:10FFC000686111F0DFFCFEF78FFC214613F0E6FDBF
:10FFD000324628621F4913F057FF286A042113F0A4
:10FFE00095FD1E2322462146286A009705F00CFA4B
:10FFF000FEF77AFC214613F0D1FD3246E86116493E
:020000022000DC
:1000000013F042FFE869042113F080FD6FF01D0337
:1000100022462146E869009705F0F6F902A801F0AA
:10002000F9FB2246BDF81410E86913F085FEBDF80F
:100030001810286A224608B0BDE8F04113F07CBED3
:10004000F0600020C7E105007CE00500D0E105007C
:10005000D6E10500DBE105008FE20500CDE80100F7
:10006000F0B5564B564F89B0012604461E70FEF778
:100070003BFC002111F0F0FD00256060514911F0BA
:1000800081FC2B46324629466068009505F0BCF994
:10009000FEF72AFC29460DF0C5FF3946A06004F0A2
:1000A00015FF6FF0360305222946A068009505F07C
:1000B000ABF9A068FFF71AFF2946A06811F0CCFD44
:1000C0004149206111F05EFCFEF70EFC29460DF05F
:1000D000A9FF3946E06004F0F9FEE068FFF706FF8B
:1000E000372305222946E068009505F08DF9294659
:1000F000E06811F0B1FD3549606111F043FCFEF795
:10010000F3FB294613F04AFD32462062304913F0D2
:10011000BBFE206A042113F0F9FC6FF00E032A469F
:1001200029460093206A6FF00D0305F06DF9FEF784
:10013000DBFB294613F032FD3246E061254913F01E
:10014000A3FEE069042113F0E1FC6FF00403102228
:10015000216AE069009505F057F9FEF7C5FB2946CD
:1001600013F01CFD324660621B4913F08DFE606A7D
:10017000042113F0CBFC0523216A606A0095132249
:1001800005F042F902A801F045FB0499E069013944
:100190002A4689B213F0D0FD0399206A01392A4614
:1001A00089B213F0C9FD0299606AA1F2E4712A468E
:1001B00089B209B0BDE8F04013F0BEBDF060002088
:1001C000CDE80100D7E20500D0E10500D6E1050049
:1001D000E0E2050036E3050093E305006E4B2DE9F0
:1001E000F74301261E706D4BDFF8D8911B684363FF
:1001F0006B4B1B6883636B4B1B68C3630446FEF742
:1002000073FB002111F028FD00256060664911F0A4
:10021000B9FB2B46324629466068009505F0F4F894
:10022000FEF762FB29460DF0FDFE604EA0603146F0
:1002300004F04CFE6FF0360305222946A0680095B5
:1002400005F0E2F8A068FFF751FE2946A06811F01A
:1002500003FD5749206111F095FBFEF745FB294648
:100260000DF0E0FE3146E06004F030FEE068FFF79C
:100270003DFE372305222946E068009505F0C4F8C5
:100280002946E06811F0E8FC4A49606111F07AFB08
:10029000FEF72AFB294610F0EFF86FF03108E06115
:1002A00049460FF0D1FF2A466FF054032946E06912
:1002B000CDF8008005F0A8F83146E06904F006FEAC
:1002C000A18EE06910F012F8FEF70EFB294611F03E
:1002D000C3FC6FF001072062374911F053FB2B4636
:1002E0000A22E169206A009705F08EF8FEF7FCFA11
:1002F000294610F0C1F8494660620FF0A5FF2B4671
:100300002A462946606ACDF8008005F07DF831461E
:10031000606A04F0DBFD218F606A0FF0E7FFFEF7F3
:10032000E3FA294611F098FC2449A06211F02AFB57
:100330002B460A22616AA06A009705F065F8FEF76D
:10034000D3FA294610F098F84946E0620FF07CFF96
:100350002A4655232946E06ACDF8008005F054F876
:100360003146E06A04F0B2FDA18FE06A0FF0BEFFF3
:10037000FEF7BAFA294611F06FFC1149206311F01B
:1003800001FB00972B460A22E16A206B05F03CF83E
:1003900003B0BDE8F08300BFF0600020E021002042
:1003A000E421002010600020D9E30500CDE8010021
:1003B000D0E10500D6E1050003E4050008E40500EE
:1003C0000DE40500E4E30500464BF7B501260446BD
:1003D0001E70FCF759FA6060FEF786FA002111F0F2
:1003E0003BFC0025A0604049404F11F0CBFA2B4662
:1003F00032462946A068009505F006F8FEF774FA23
:1004000029460DF00FFE3946E06004F05FFD6FF005
:10041000360305222946E068009504F0F5FFE06800
:10042000FFF764FD2946E06811F016FC3049606171
:1004300011F0A8FAFEF758FA29460DF0F3FD3946F7
:10044000206104F043FD2069FFF750FD37230522AA
:1004500029462069009504F0D7FF2946206911F04C
:10046000FBFB2449A06111F08DFAFEF73DFA294605
:1004700013F02AFF0722206231460DF097FA394621
:10048000206A04F023FD6FF009032A4629460093F1
:10049000206A2B4604F0B8FF276AFCF7F5F92A46D4
:1004A00001B238460DF018FAFEF71EFA294611F08F
:1004B000D3FB07466062206A13F080FF0E490246B4
:1004C000384611F0C9FA3146606A04F081FC0A230B
:1004D00000930D222B46216A606A04F095FF03B059
:1004E000F0BD00BFF060002012E40500CDE801007F
:1004F000D0E10500D6E1050021E4050030B5C36870
:100500008B428DB0044604D1032A02D116F03AF88A
:1005100006E0236999422FD1032A2DD1FCF780FBF5
:100520000546164906A816F052FB0A22294603A8DA
:1005300016F0C0FB03A906A816F0FAFB014609A8AD
:1005400016F083FB09A8FCF7C9FC09A816F0FDFA10
:1005500003A816F0FAFA06A816F0F7FA2A46084990
:10056000A06811F079FA6FF01D03009300231A467A
:100570001946A06804F048FF0DB030BD24E4050022
:100580002CE4050038B50F4C0F490546204606F00F
:1005900051FA0E4A0E4B1268656233F812206280DF
:1005A0000C4A126833F81220A2800B4A126833F802
:1005B00012302384FEF798F92146BDE8384005F053
:1005C000B3B900BF1460002080AA0020E021002001
:1005D00064210020E42100201060002013B516489B
:1005E000FFF7D0FFFEF780F9002111F035FB13492A
:1005F000044611F0C7F92046012110F0D3FD6FF039
:100600003B03009300231A461946204604F0FCFEE3
:10061000FEF76AF9002110F037FB0949044610F093
:1006200085FA1423009300231A461946204604F045
:10063000EBFE02B010BD00BF7422002034E40500C0
:10064000D846060037B50546FDF76CFBFEF74CF9BA
:10065000002111F001FB00246860204911F092F99B
:100660000094234601222146686804F0CDFE1C4810
:10067000FFF788FFFEF738F9214611F0EDFA194926
:10068000A86011F07FF93223009301220A2321464A
:10069000A86804F0B9FEFEF727F9214611F0DCFA4C
:1006A0001149E86011F06EF95023009301220A23EA
:1006B0002146E86804F0A8FEFEF716F9214610F07E
:1006C000E3FA0A49054610F031FA00942346052260
:1006D0002146284604F098FE03B030BD45E40500ED
:1006E0007422002054E405004FE40500881E050034
:1006F0002DE9F043044687B04448FFF743FFFEF777
:10070000F3F8002110F0C0FA00250746404910F028
:100710000DFA2B46052229463846009504F074FE52
:10072000FEF7E2F8294611F097FAF021E06005F0B3
:1007300047FB3849E06811F025F9294603A8E76826
:1007400000F028FE059B0BB1DDF80C9049463846B9
:1007500011F018F9002503A816F0F7F92B4601222D
:100760002946E068009504F04FFEFEF7BDF82946E3
:1007700011F072FAF021206105F022FB2549206971
:1007800011F000F9294603A8276900F093FE059BA4
:100790000BB1DDF80C804146384611F0F3F803A8A0
:1007A00016F0D3F91923009300231946012220697A
:1007B00004F02AFEFEF798F8002111F04DFA01210D
:1007C000A06011F0DBF9F021A06805F0F9FA1149F9
:1007D000A06811F0D7F8002103A8A56800F022FE58
:1007E000059B03B1039E3146284611F0CBF803A8C0
:1007F00016F0ABF932230093002301221946A068BA
:1008000004F002FE07B0BDE8F08300BF0421002021
:10081000F0E405007CA1030070470000044B054A8A
:1008200019681160044A1A60044B00221A6070476C
:10083000CC2000208821002024620020BC21002040
:1008400008B5FFF7EBFF2820BDE80840FDF720BD05
:10085000FFF7E4BFFFF7E2BFFFF7E0BFFFF7DEBF40
:1008600084B001A804B080E80E00FFF7D7BF84B0C1
:1008700001A804B080E80E00FFF7D0BFFFF7CEBF9D
:10088000FFF7CCBFFFF7CABFFFF7C8BFFFF7C6BF70
:10089000FFF7C4BFFFF7C2BFFFF7C0BFFFF7BEBF80
:1008A000FFF7BCBF044B054A19681160044A1A607F
:1008B000044B00221A607047CC20002088210020C1
:1008C0007C630020BC210020044B054A196811609C
:1008D000044A1A60044B00221A607047CC200020A2
:1008E00088210020EC630020BC21002038B5114D88
:1008F000114C2846FFF746FE104B22681A60104B39
:1009000010481860104B206000221A70FDF7F3FFAA
:100910002846FFF737FE206803681B689847206861
:1009200003685B689847FCF771FEBDE838400CF03F
:100930001BBC00BF48220020CC20002088210020C2
:10094000D0200020C0210020F060002010B5044617
:1009500000F0A8FE034B186802682146526ABDE801
:1009600010401047CC20002084B030B585B008ACD2
:1009700084E80F009DF82030022B04D1204B18682A
:100980000368DB6831E0012B04D11D4B1868036854
:100990001B692AE0052B0BD1194B1C680BAB93E8A4
:1009A000070025688DE8070008AB0ECBED690CE069
:1009B0000C2B0DD1124B1C680BAB93E8070025687C
:1009C0008DE8070008AB0ECB2D6A2046A84711E042
:1009D000032B04D10A4B186803685B6905E0042BFC
:1009E00008D1074B186803689B6905B0BDE8304023
:1009F00004B0184705B0BDE8304004B0704700BFF0
:100A0000CC200020024B18680368DB6A184700BF3F
:100A1000CC20002038B5174D38B915F0B3FD2B6840
:100A2000C41AFFF7EFFF84421FD915F0ABFD124C3B
:100A30002860124D23682868834211D003689B68A0
:100A40009847206803685B6B98470D48FFF79AFD4D
:100A500020680C4B286000221A7003681B689847B6
:100A6000054B186803685B689847BDE838400CF090
:100A70007BBB00BF6C610020CC200020D020002078
:100A800048220020F0600020024B034A19681160E0
:100A900018607047CC2000208821002083688B429A
:100AA00003D1032A01D10C4813E0C368994203D152
:100AB000032A01D109480CE08369994203D1032A32
:100AC00001D1074805E0C369994204D1032A02D144
:100AD0000448FFF7D9BF7047C4630020EC5F0020D3
:100AE000F460002054600020032A15D143698B4232
:100AF00001D143680DE08369994201D1836808E020
:100B0000C369994201D1C36803E0036A994203D1E2
:100B100003699868FFF7B8BF70470000024B186878
:100B200003689B6A184700BFCC200020024B1A685C
:100B3000024B1A60704700BF88210020CC200020A3
:100B4000FFF7F4BFFFF7F2BF0E2910B5044612D12C
:100B500011F0C8FA084B834203D1BDE81040FCF7FE
:100B6000F8BC204611F0BEFA044B834203D1BDE825
:100B70001040FFF7DBBF10BD58E405005CE4050042
:100B8000FFF7D4BF0E2910B5044613D111F0AAFA0D
:100B9000094B834204D10120BDE81040FCF7C9BCD9
:100BA000204611F09FFA054B834203D1BDE8104067
:100BB000FFF7BCBF10BD00BF58E405005CE40500B2
:100BC000FFF7B4BF0E2910B5044612D111F08AFA0E
:100BD000084B834203D1BDE81040FCF7BFBC204660
:100BE00011F080FA044B834203D1BDE81040FFF7B7
:100BF0009DBF10BD58E405005CE4050038B5C3682E
:100C00008B42044608D1032A06D14068FBF742FE16
:100C1000BDE83840FFF78ABF2369994208D1032A0B
:100C200006D1FFF783FF2320BDE83840FDF730BB36
:100C3000236A99420FD10E2A0DD1084613F0BEFB4C
:100C4000054905460246606A10F006FF2846BDE8E1
:100C50003840FBF71FBE38BD21E4050008B5034648
:100C60000846996881420ED1062A0CD11C4A596B5C
:100C700011601C4A996B1160DA6B1B4B1A60BDE85E
:100C80000840FFF753BFD968884208D1062A06D129
:100C9000FFF74CFF2320BDE80840FDF7F9BAD969FA
:100CA000884205D10E2A03D10FF0B2FB0C4B10E0A5
:100CB000596A884205D10E2A03D10FF0A9FB094BCE
:100CC00007E0DB6A98420AD10E2A08D10FF0A0FB98
:100CD000054B18600548BDE80840FFF753BC08BD48
:100CE000E0210020E42100201060002048220020A4
:100CF000FFF71CBFFFF71ABFFFF718BFFFF716BFBC
:100D0000FFF714BFFFF712BFFFF710BF83688B42D6
:100D100070B5044605D1032A03D1BDE87040FFF742
:100D200005BFE368994219D1032A17D1E06912F08F
:100D3000DDFF0646206A12F0D9FF0546606A12F010
:100D4000D5FF721C691C00F2E47000F0E3FDFFF7B0
:100D5000EDFE2320BDE87040FDF79ABA70BD38B5AE
:100D600083688B42044605D1032A03D1BDE838408D
:100D7000FFF7DCBEE368994213D1032A11D1E06981
:100D800012F0B4FF0546206A12F0B0FF0146284673
:100D900000F0E0FDFFF7CAFE2320BDE83840FDF774
:100DA00077BA38BD014B1878704700BFF06000205B
:100DB0000A490B4B0A681A600A4B0B481A6800680C
:100DC000013282421A6001DC002A01DA00221A6034
:100DD0001A68064B53F822300B607047CC20002075
:100DE00088210020BC21002054210020EC2100207B
:100DF000FFF7DEBFFFF7DCBF0A490B4B0A681A603A
:100E00000A4B0B481A680068013A002A1A6001DB95
:100E1000824200DD18601A68064B53F822300B60DE
:100E2000704700BFCC20002088210020BC2100207A
:100E300054210020EC210020FFF7DEBFFFF7DCBFCC
:100E400038B55F2205210A200AF04BFE3E4B3F4A8F
:100E500018803F4B3F4C1A603F4B404A404D1A6050
:100E6000404B44F8203B0FCD0FC40FCD0FC495E885
:100E700007003D4B84E807003C4A1A603C4B3D4A62
:100E80001A603D4B3D4A1A603D4B3E4A1A603E4B4C
:100E90003E4A1A603E4B3F4A1A603F4B3F4A1A6037
:100EA0003F4B404A1A60404B404A1A60404B414A0F
:100EB0001A60414B414A1A60414B424A1A60424B08
:100EC000424A1A60424B434A1A60434B434A1A60F3
:100ED000434B444A1A60444B44491A68444B01202E
:100EE000186344485860444898604448D86044486F
:100EF00019605A631861434B0220186342485860D6
:100F0000424898604248D860424819605A63186164
:100F1000414B03201863414858604148986041485C
:100F2000D860414819605A631861404B1960042128
:100F300019635A633E4A5A603E4A9A603E4ADA60F2
:100F40003E4A1A6138BD00BF64210020FCA20300A4
:100F500024620020A05F0020146200203CA3030054
:100F6000C0A803007CA303007C6300207CA40300D2
:100F70000C5F0020C0A40300EC5F002000A503006C
:100F8000C463002040A50300F460002080A5030096
:100F900054600020C0A503000062002000A60300EA
:100FA000A460002040A60300B460002080A60300D7
:100FB0000862002000A70300EC63002040A70300A4
:100FC000A861002084A70300C0610020C4A703001B
:100FD0009463002004A80300D460002044A8030008
:100FE0007C60002084A80300D8200020C0A6030055
:100FF000706100207C210020C0200020C82100203A
:101000000C220020B86400202C210020A421002004
:101010002021002000220020806400208C2100205C
:10102000DC200020B0210020982100203461002025
:10103000142100207021002058210020D4210020FC
:101040007047F8B58E6807460D460024B4420FDAA3
:101050002146284615F09CFE03781F2B01D9013448
:10106000F4E701222146284615F0DAFE013EEDE7BD
:101070002946384615F05AFD3846F8BD2DE9F041AD
:101080002C218AB0044615F09FFE471C3A462C21BD
:10109000204615F08BFE461C804632462C21204609
:1010A00015F084FE434605463A46214601A815F050
:1010B0008FFE2B463246214607A815F089FE07A869
:1010C00015F0C7FE07A815F040FDA3686A1C21466D
:1010D00007A815F07DFE07A815F0BBFE07A815F0C0
:1010E00034FD01A904A815F0B0FD04A907A8FFF775
:1010F000A8FF07A90D4815F0B2FD07A815F025FDBA
:1011000004A815F022FD012000F0D4FAFFF7CAFB75
:10111000FDF7CCF86420FDF7E1F800F0C3FA01A870
:1011200015F013FD0AB0BDE8F08100BFF0640020A7
:1011300010B58AB00446114901A815F048FD2146B2
:1011400001A815F0F5FD014604A815F07EFD04A9DF
:1011500007A8FFF776FF07A9094815F080FD07A843
:1011600015F0F3FC04A815F0F0FC01A815F0EDFC57
:10117000FDF79CF800F096FA0AB010BD706F0600FB
:101180002065002010B58AB00446104901A815F06A
:101190001EFD214601A815F0CBFD014604A815F05F
:1011A00054FD04A907A8FFF74CFF07A9084815F04C
:1011B00056FD07A815F0C9FC04A815F0C6FC01A847
:1011C00015F0C3FC00F06EFA0AB010BD776F060090
:1011D0002C65002010B58AB00446104901A815F00E
:1011E000F6FC214601A815F0A3FD014604A815F060
:1011F0002CFD04A907A8FFF724FF07A9084815F04C
:101200002EFD07A815F0A1FC04A815F09EFC01A86E
:1012100015F09BFC00F046FA0AB010BD846F060082
:101220000865002010B58AB00446104901A815F0E1
:10123000CEFC214601A815F07BFD014604A815F05F
:1012400004FD04A907A8FFF7FCFE07A9084815F04C
:1012500006FD07A815F079FC04A815F076FC01A896
:1012600015F073FC00F01EFA0AB010BD8B6F06007B
:101270001465002070B5204B86B005460C4631B988
:101280009A6822B11C49284615F0DFFC31E09B68C2
:10129000194E9C4214D9314603A815F0D6FCB36808
:1012A0000026E41AA64205DA144903A815F031FD18
:1012B0000136F7E703A9284615F038FC03A816E025
:1012C000E0D2E31E00223146684615F081FD6946F2
:1012D00003A815F0BAFC0A4903A815F035FD01462C
:1012E000284615F0B2FC03A815F02FFC684615F04F
:1012F0002CFC284606B070BD20650020B0300700E9
:10130000936F060070B5204B86B005460C4631B988
:101310009A6822B11C49284615F097FC31E09B6879
:10132000194E9C4214D9314603A815F08EFCB368BF
:101330000026E41AA64205DA144903A815F0E9FCD0
:101340000136F7E703A9284615F0F0FB03A816E0DD
:10135000E0D2E31E00223146684615F039FD6946A9
:1013600003A815F072FC0A4903A815F0EDFC01462C
:10137000284615F06AFC03A815F0E7FB684615F04F
:10138000E4FB284606B070BDF0640020B0300700D2
:10139000936F060070B5204B86B005460C4631B9F8
:1013A0009A6822B11C49284615F04FFC31E09B6831
:1013B000194E9C4214D9314603A815F046FCB36877
:1013C0000026E41AA64205DA144903A815F0A1FC88
:1013D0000136F7E703A9284615F0A8FB03A816E095
:1013E000E0D2E31E00223146684615F0F1FC694662
:1013F00003A815F02AFC0A4903A815F0A5FC01462C
:10140000284615F022FC03A815F09FFB684615F04E
:101410009CFB284606B070BD2C650020B03007004C
:10142000936F060070B5204B86B005460C4631B967
:101430009A6822B11C49284615F007FC31E09B68E8
:10144000194E9C4214D9314603A815F0FEFBB3682F
:101450000026E41AA64205DA144903A815F059FC3F
:101460000136F7E703A9284615F060FB03A816E04C
:10147000E0D2E31E00223146684615F0A9FC694619
:1014800003A815F0E2FB0A4903A815F05DFC01462C
:10149000284615F0DAFB03A815F057FB684615F04F
:1014A00054FB284606B070BD08650020B030070028
:1014B000936F060070B5204B86B005460C4631B9D7
:1014C0009A6822B11C49284615F0BFFB31E09B68A1
:1014D000194E9C4214D9314603A815F0B6FBB368E7
:1014E0000026E41AA64205DA144903A815F011FCF7
:1014F0000136F7E703A9284615F018FB03A816E004
:10150000E0D2E31E00223146684615F061FC6946D0
:1015100003A815F09AFB0A4903A815F015FC01462B
:10152000284615F092FB03A815F00FFB684615F04E
:101530000CFB284606B070BD14650020B0300700D3
:10154000936F0600F8B5204E204F214D214C3146B7
:10155000384615F03CFB38461F4F2A46214616F008
:1015600051FB3146384615F032FB38461B4F2A46B0
:10157000214616F047FB3146384615F028FB384621
:10158000174F2A46214616F03DFB3146384615F0E6
:101590001EFB3846134F2A46214616F033FB3146D0
:1015A000384615F014FB38460F4F2A46214616F0F0
:1015B00029FB3146384615F00AFB2A4621463846B3
:1015C000BDE8F84016F01EBBB0300700F064002004
:1015D000802000204B6B0300206500202C6500203C
:1015E0000865002014650020FC6400203BDF704784
:1015F00048DF70470120FFF7F9BF0000014B187862
:10160000704700BF38650020014B1868704700BF65
:101610004865002008B5012000F060FA0020FBF7C3
:1016200039F9FBF7F3FFFFF7F9F80120FFF7F2F9BB
:10163000FCF784FB0020FCF7F3FD0020FCF7F6FD2F
:101640000020FCF76AF8084A0023C2F8003502F5CA
:10165000A832C2F8003502F5A042C2F8003502F502
:101660008052C2F8003508BD00700040064B10B52E
:101670001C7844B901221A70FFF7CCFF2046BDE860
:10168000104000F05FBA10BD3865002008B5FFF7C4
:10169000AFFF034B4FF48002C3F8802108BD00BFA9
:1016A00000E100E008B514F06DFF014B186008BDC3
:1016B0003C65002070B50F4D2C780646BCB100206B
:1016C00000F00CFA0C4B1E6000232B70FFF7EAFFB2
:1016D0000120FCF722F8FBF72BF9FBF7DFFA0546B0
:1016E00018B1FFF79BF82C4601E0FFF7EDF8204614
:1016F00070BD00BF386500204865002038B5124C29
:1017000014F040FF2368C01AB0F5967F1AD914F080
:1017100039FF206014F036FF0C4B1C68041BFFF7E8
:10172000FDF90B4B1B68082B054609D100F004FAA4
:1017300030B9FAF7D3FF18B9BDE83840FFF796BFC4
:10174000AC42F9D838BD00BF446500203C6500209C
:1017500048650020024B002218781A70704700BFBD
:10176000406500200C4B1022E021C3F8842183F84F
:1017700024135A60094B0022C3F8082540F21F5277
:10178000C3F840254FF48032C3F80423C3F8442340
:1017900001221A60704700BF00E100E000400240F3
:1017A000114B07B5D3F8401101291AD10022C3F813
:1017B0004021D3F8042502F21F52C3F84025D3F884
:1017C00040310193019B094B1970094B1B780BB9F0
:1017D000FBF71CFFFCF790FDFCF73AFB08B9FCF7A0
:1017E000DFFA03B05DF804FB0040024040650020D2
:1017F00038650020704707B540F2E473002201937A
:10180000012300931146104614F002FC03B05DF86A
:1018100004FB000070B5064614F0F2FB0C4C20608F
:1018200014F0E4FB606014F0D7FBA06014F0B6FB8A
:10183000E06014F0BDFB206114F0C4FB60610FCCCC
:1018400035460FC594E8030085E80300304670BDB7
:101850004C6500202DE9F04387B00446014604237F
:10186000002203A815F0B4FA03A815F0F2FA814695
:1018700003A815F06AF921460623042203A815F0EF
:10188000A7FA03A815F0E5FA804603A815F05DF95C
:1018900021460823062203A815F09AFA03A815F09A
:1018A000D8FA074603A815F050F921460A23082262
:1018B00003A815F08DFA03A815F0CBFA054603A886
:1018C00015F043F90C230DEB030021460A2215F015
:1018D0007FFA03A815F0BDFA064603A815F035F9FE
:1018E0000C220DEB020021460E2315F071FA03A81D
:1018F00015F0AFFA044603A815F027F98DE80003A8
:101900003B4622463146284614F082FB07B0BDE82C
:10191000F08300002DE9F04389B0814602AC02A8B3
:1019200088461746FFF776FF0FCC094E35460FC5A0
:1019300094E8030085E803003B4601468DE8000378
:101940007269F06814F064FB09B0BDE8F08300BF71
:101950004C6500202DE9F04188B0074602AC02A892
:101960008846FFF757FF0FCC094E35460FC594E860
:101970000300336885E803000193736800934146D0
:1019800013463846002214F043FB08B0BDE8F0814E
:101990004C6500201FB5044614F032FB0A220146B4
:1019A000204615F087F914F021FB092803DC2B49A8
:1019B000204615F0AEF914F019FB0A22014601A8E1
:1019C00015F078F901A9204615F09FF901A815F046
:1019D000BCF814F001FB092803DC2049204615F06F
:1019E00098F914F0F9FA0A22014601A815F062F9F3
:1019F00001A9204615F089F901A815F0A6F814F000
:101A0000CDFA092803DC1549204615F082F914F0B7
:101A1000C5FA0A22014601A815F04CF901A9204691
:101A200015F073F901A815F090F814F0C1FA09281F
:101A300003DC0A49204615F06CF914F0B9FA0A22C1
:101A4000014601A815F036F901A9204615F05DF907
:101A500001A815F07AF8204604B010BDD2DF0500C9
:101A60001A4B70B51D6885BB012421460D201C60F2
:101A700014F068FE29461C2014F064FE21460D2057
:101A800014F082FE322014F095FD29460D2014F04A
:101A90007BFE052014F08EFD0D4D21460D2014F027
:101AA00073FE322014F086FD23460A4A2878152159
:101AB000FCF714FB052014F07DFD2878064A03236B
:101AC000A721BDE87040FCF709BB70BD6865002028
:101AD00028220020806500208165002013B50021A8
:101AE00004460D2014F050FE052014F063FD0D2077
:101AF000012114F049FE322014F05CFD4CB102AA21
:101B00000548032302F8013DA52101230078FCF7D5
:101B1000C1FA02B010BD00BF28220020014B0122F3
:101B20001A70704765650020024B002218781A7001
:101B3000704700BF65650020014B1878704700BFF3
:101B400064650020014B1870704700BF6465002079
:101B5000164B1B6807B50BB9FFF782FF1448062325
:101B60006A4601210078FCF7B9FA124B9DF8002073
:101B70001A709DF801205A709DF802209DF80310FC
:101B8000596092119A70FF299DF805209A601846B5
:101B900006D1FF2A04D1DA685A601A699A6001E016
:101BA000C160026103B05DF804FB00BF68650020FE
:101BB000282200206C65002070B5054D06460446BD
:101BC0000FCD0FC495E8030084E80300304670BDD4
:101BD0006C6500200A4B0022C3F80C25C003C3F833
:101BE0000C254FF47A7290FBF2F0C3F80405D3F899
:101BF000082542F00102C3F8082501221A60704747
:101C00000000014041F28830FFF7E4BF024B034A75
:101C1000C3F80026704700BF000001403546526EF1
:101C2000016082807047006870478088704729DFB4
:101C3000704728DF704703681868013018BF01201B
:101C4000704708B54FF080531A690368B3FBF2F38D
:101C50001846FFF7EEFF1128FAD008BD38B5044644
:101C60000D461946FFF7EDFF8B081A4629462068F6
:101C7000FFF7DDFF1128F8D038BD10B5026808461F
:101C8000043A441AA34204D952F8044F40F8044BD2
:101C9000F7E710BD0B6843608B8803817047002312
:101CA00043600381704708B50160FFF7F8FF08BD86
:101CB000807A7047C0687047007C7047002070478A
:101CC000C368585C704770B50D46114602680446FB
:101CD000D6691A46B0470123A374A36923B12146EC
:101CE0002846BDE87040184770BD70B504460846E8
:101CF0000D4616F0C1FD2368C2B229462046DB69B5
:101D0000BDE8704018470000044B10B5044603605E
:101D1000C06808B115F0F0FF204610BDA06F0600A6
:101D200010B50446FFF7F0FF204615F0ADF8204649
:101D300010BD10B5837A9A42044628BF1A46027431
:101D4000C06815F0E1FF606928B1036821461B688F
:101D5000BDE810401847012010BD000070B50446D2
:101D60001D461646043042F6030200F075F8142DA5
:101D70004FF0000228460A4B236028BF1420A072AF
:101D8000E26022746674A274E2746261A261E2612C
:101D9000226215B115F0A8FFE060204670BD00BFBB
:101DA000A06F0600407C7047C07C70470346002A45
